:100000000C9494000C94BC000C94BC000C94230938
:100010000C9423090C9423090C94BC000C94BC0090
:100020000C94BC000C94BC000C94BC000C94BC0060
:100030000C94BC000C94BC000C94BC000C94BC0050
:100040000C94DF0D0C94BC000C94190D0C94F30C63
:100050000C94BC000C94BC000C94BC000C94BC0030
:100060000C94BC000C94BC00F71E091F0C1F131F3E
:100070001A1F481F4F1F5C1F691F751F751F751FB3
:10008000751F751F751F751F751F751F751F751FD0
:10009000751F751F751F751F751F751F751F751FC0
:1000A000751F751F751F751FF71E041F091F0C1F75
:1000B000131F1A1F211F2E1F3B1F000000002400CA
:1000C00027002A007C3C3E5E2B3D3F2F5B5D3B2C96
:1000D0002A225C000000000800020100000304075F
:1000E00000000000000000000000000025002800C3
:1000F0002B00000000002300260029000404040453
:1001000004040404020202020202030303030303C1
:10011000010204081020408001020408102001029E
:1001200004081020E11FD71F11241FBECFEFD8E015
:10013000DEBFCDBF12E0A0E0B1E0E2E9F1E502C030
:1001400005900D92AE3DB107D9F727E0AEEDB2E0D4
:1001500001C01D92A130B207E1F710E0C3E9D0E081
:1001600004C02197FE010E943824C239D107C9F783
:100170000E94FF140C94BC280C940000DC015996DA
:10018000ED91FC915A973097B9F083899489A589AC
:10019000B6894285538564857585841B950BA60BAE
:1001A000B70B811520E89207A105B10538F08FEF54
:1001B0009FE7A0E0B0E0089580E090E00895CF933D
:1001C000DF931F92CDB7DEB76983DC01ED91FC911F
:1001D0000280F381E02D41E050E0BE016F5F7F4F70
:1001E00009950F90DF91CF9108952091E002309111
:1001F000E1022817390771F49091DE028091DF0245
:10020000981741F0E091DE02F0E0E951FD4F808166
:1002100090E008958FEF9FEF089508951F93CF9377
:10022000DF93DC015C962D913C915D9721153105A2
:1002300039F481E090E013969C938E9312973DC021
:100240005196ED91FC91529750969C915097892F21
:1002500080951FB75E964C915E9741FB772770F9AA
:1002600041FD6095F8944081772311F0492B01C03E
:1002700048234083E9012197F1F748E0508160FF6E
:1002800002C0592B01C058235083E9012197F1F78F
:100290006695415099F7772321F0908189238083D7
:1002A00003C08081982B90831FBF5C968D919C9199
:1002B0005D970197F1F721E030E0C901DF91CF911F
:1002C0001F9108952091E0023091E102281739072B
:1002D00071F48091DF022091DE0290E0805C9F4FFC
:1002E000821B910960E470E00E940224089580E07E
:1002F00090E008952091E0023091E102281739073B
:10030000B9F49091DE028091DF02981789F0E091B4
:10031000DE02F0E0E951FD4F80812091DE0230E005
:100320002F5F3F4F2F7333272093DE0290E0089515
:100330008FEF9FEF0895FC01818D928D009711F052
:100340000C943A1008958F929F92AF92BF92CF92E1
:10035000DF92EF92FF920F931F93CF93DF9300D022
:1003600000D0CDB7DEB77C0180E2689F6001112428
:100370009601295C3C4FD9011B969C91917121F00B
:10038000842F827409F097C0142FF701628B80913B
:10039000000190910101A0910201B09103018687B3
:1003A0009787A08BB18BF601E95CFC4F4489558996
:1003B00060E070E0BA0155274427D70157964D9366
:1003C0005D936D937C935A97828D938DA0E0B0E0FE
:1003D000482B592B6A2B7B2BD70157964D935D9356
:1003E0006D937C935A97D9011B968C91887159F41F
:1003F000848D958DA68DB78DF701838B948BA58BFE
:10040000B68B81E012C0803109F055C097012D5E96
:100410003F4FD7015B968D919C915C970E94D10FC5
:10042000882309F448C084E0F7018583812F8F7009
:10043000D70114968C931497F701168217821086B1
:1004400011861A961D921D921D921C921D9716FFE1
:1004500034C015968C91813071F511FF2CC0F701D5
:100460004389548965897689452B462B472B09F4A6
:1004700061C040E050E0BA01C7010E9478108823B3
:10048000D1F0F7018788908CA18CB28CC38CD48C6E
:1004900082E090E0A0E0B0E0F60180839183A28347
:1004A000B3839E012F5F3F4FB501A401C6010E9497
:1004B0004D0F811104C080E03DC081E03BC000E0F1
:1004C00010E09801B501A401C6010E94AD0E882379
:1004D00091F389809A80AB80BC80D60157968C912D
:1004E000803129F088EF9FEFAFEFBFE004C088EFC5
:1004F0009FEFA0E0B0E088169906AA06BB0688F236
:10050000D70157961D921D921D921C925A97F70182
:10051000138A148A158A168A848180688483C701A5
:100520000E943A10882339F240E050E0BA01C70136
:100530000E9478100F900F900F900F90DF91CF9145
:100540001F910F91FF90EF90DF90CF90BF90AF90F1
:100550009F908F900895CF93DF93EC01898D9A8DB2
:10056000009739F481E090E09B838A8380E090E0FB
:100570000BC0FC01138212820E940E11E98DFA8DCC
:1005800022813381232B71F7DF91CF910895CF938F
:10059000DF93EC010E943A10882311F01D8281E064
:1005A000DF91CF9108953F924F925F926F927F9229
:1005B0008F929F92AF92BF92CF92DF92EF92FF9273
:1005C0000F931F93CF93DF93CDB7DEB72C970FB662
:1005D000F894DEBF0FBECDBF5C01DC015B968D9051
:1005E0009C905C971696CD90DD90ED90FC901997BD
:1005F000C114D104E104F10439F0BFEFCB1ADB0AD6
:10060000EB0AFB0A312C07C0F401C080D180E280E4
:10061000F38033243394F40181859285A385B485D6
:100620009C01AD012F5F3F4F4F4F5F4F29873A87A6
:100630004B875C87260137011D821E821F82188628
:10064000F40181859285A385B4852D813E814F81FA
:100650005885281739074A075B0708F063C0898562
:100660009A85AB85BC858C159D05AE05BF0550F4FC
:1006700082E0C82ED12CE12CF12C92E0492E512C95
:10068000612C712C9E012F5F3F4FB701A601C40161
:100690000E944D0F882309F445C089819A81AB815E
:1006A000BC81892B8A2B8B2B41F0260137019FEFD0
:1006B000491A590A690A790A05C0C414D504E6041E
:1006C000F70491F02D813E814F8158852F5F3F4F78
:1006D0004F4F5F4F2D833E834F8358873FEFC31AA1
:1006E000D30AE30AF30AACCF0FEF1FEF2FEF3FE07F
:1006F000B301A201C4010E94AD0E882399F0D50177
:1007000016964D915D916D917C911997411551050A
:100710006105710549F093018201C4010E94AD0E8B
:10072000811102C080E02AC0D50116964D925D92DB
:100730006D927C921997332051F0D301C20101963A
:10074000A11DB11DF40180839183A283B383F501C0
:100750008789908DA18DB28D892B8A2B8B2B69F483
:10076000D50157964D925D926D927C925A97149650
:100770008C911497806814968C9381E02C960FB618
:10078000F894DEBF0FBECDBFDF91CF911F910F91C7
:10079000FF90EF90DF90CF90BF90AF909F908F90A1
:1007A0007F906F905F904F903F9008958FB7F8942F
:1007B000809128038FBF089561E0FC0184810E942D
:1007C0004B0D8091270381111092270308958EBD50
:1007D00000000DB407FEFDCF8EB508958FEF0C9489
:1007E000E7030F931F93CF93DF93EB010E94D30D89
:1007F0008B010E94EE038F3F49F00E94D30D601BD6
:10080000710B6C177D07A8F380E001C081E0DF91D8
:10081000CF911F910F910895CF93DF93EC018E81BB
:10082000882389F08F8198859C012F5F3F4F3887FF
:100830002F838230924018F40E94EE03F3CFCE0152
:100840000E94DC031E82DF91CF9108958CBD9DBD77
:100850000895CF93DF93EC0180912703811109C0A4
:1008600081E0809327038091E6059091E7050E943F
:10087000260460E08C81DF91CF910C944B0DCF92D8
:10088000DF92FF920F931F93CF93DF9300D000D09E
:10089000CDB7DEB76C01F62E29833A834B835C8398
:1008A0000E940C04C6010E9429046CE271E0C6019A
:1008B0000E94F1038F2D80640E94E70308E110E09D
:1008C0005C814B813A812981DA01C901002E04C083
:1008D000B695A795979587950A94D2F729833A8379
:1008E0004B835C830E94E7030850110929813A81F8
:1008F0004B815C81083F8FEF180731F7FF2029F00B
:10090000E8E0FE1204C087E803C085E901C08FEF6C
:100910000E94E70310E00E94EE03F601828787FF42
:1009200004C01F3F11F01F5FF6CF0F900F900F9084
:100930000F90DF91CF911F910F91FF90DF90CF909B
:100940000895AF92BF92CF92DF92EF92FF920F93F2
:100950001F93CF93DF93EC016901C801820F931FAE
:100960008130924008F070C08E81882371F08881B8
:100970009981AA81BB81481759076A077B0729F427
:100980008F819885C816D906B0F5488359836A8344
:100990007B838B85833039F089E0440F551F661FB8
:1009A000771F8A95D1F79A01AB0161E1CE010E94D0
:1009B0003F04882319F083E08D8346C00E94D30D45
:1009C0005B010E94EE038A878F3F49F40E94D30D9A
:1009D0006A197B096D327140A0F38FE003C08E3F2E
:1009E00031F08DE08D83CE010E94DC032DC018868E
:1009F0001F8281E08E838F8198858C159D0540F440
:100A00000E94EE038F819885019698878F83F3CF9C
:100A10006701E00EF11ECE14DF0431F00E94EE03F8
:100A2000F60181936F01F7CF8F819885080F191F09
:100A300018870F838985882319F00115124048F023
:100A4000CE010E940C0405C0CE010E94DC0380E0B0
:100A500001C081E0DF91CF911F910F91FF90EF9046
:100A6000DF90CF90BF90AF9008952F923F924F921A
:100A70005F926F927F928F929F92AF92BF92CF922E
:100A8000DF92EF92FF920F931F93CF93DF9300D0EB
:100A9000CDB7DEB7FC018581882309F4D9C08481F4
:100AA00080FFD6C021E02A834389548965897689ED
:100AB00082859385A485B585481759076A077B0702
:100AC00009F41A826F013A81832F90E0DE011196BA
:100AD0004D013F01B6E06B0E711C892B09F47DC0FE
:100AE000D6011A964D915D916D917C911D975A0199
:100AF000B1E0BB22F60125811A012B0189E0569451
:100B00004794379427948A95D1F7838D948D22301A
:100B100061F4FC01828D938DA48DB58DBC01CD0156
:100B2000620D731D841D951D45C0DC0114961C913A
:100B300011501221A114B104D1F4111118C0452B88
:100B4000462B472B51F4F6018789908DA18DB28DEC
:100B500086839783A087B1870AC0468157816085C5
:100B6000718593010E944D0F882309F471C0F6012D
:100B7000238D348D86819781A085B1850297A10947
:100B8000B109AC01BD01F901058404C0440F551F32
:100B9000661F771F0A94D2F786859785A089B18949
:100BA000840F951FA61FB71FBC01CD01610F711DDA
:100BB000811D911DD60114962C9126FF14C0009121
:100BC0000001109101012091020130910301601791
:100BD00071078207930751F506C0FA81FF23C1F11F
:100BE000898190E037C040E00E94640E882381F143
:100BF000F501E95CFC4FD401CF010196E817F90734
:100C000019F021912D93FACFEFEF8E1A9E0AF6017B
:100C100082859385A485B5850196A11DB11D828726
:100C20009387A487B58780E090E057CF740101E0F7
:100C300010E09501AB01BC0180913705909138051A
:100C40000E94A104882321F0BFEF8B1A9B0ADFCFFB
:100C50008FEF9FEF0F900F90DF91CF911F910F912A
:100C6000FF90EF90DF90CF90BF90AF909F908F90CC
:100C70007F906F905F904F903F902F9008954F928C
:100C80005F926F927F929F92AF92BF92CF92DF92CC
:100C9000EF92FF920F931F93CF93DF93CDB7DEB701
:100CA0002B970FB6F894DEBF0FBECDBF7C01DC01E1
:100CB0001596AC90A1108AC1FE0131966F0190E2A9
:100CC0008BE08E0F91938E13FDCFDA0130E087E039
:100CD0009D91992339F19E3219F0E4ECF0E00AC0BD
:100CE0008A3009F474C138E08AE0F2CF31964917AE
:100CF00009F46DC144914111F9CF831708F467C11C
:100D00004FED490F4E3508F062C141E0430FF60147
:100D1000E30FF11D3FE9390F3A3108F49052908307
:100D2000342FD6CF8981803209F451C1B22E8B0184
:100D3000DB015B968D919C915C97F701948F838F7B
:100D400016961D921D921D921C921997FB011286F8
:100D5000138614861586712CF80182859385A485E7
:100D6000B585438954896589768984179507A607CF
:100D7000B70708F061C025E0B695A79597958795C8
:100D80002A95D1F7F82FFF706F2ED80115968C9108
:100D9000823008F41CC1C8010E94350597FD17C1B7
:100DA000F80182859385A485B5854F96A11DB11D57
:100DB00082879387A487B587F0E26F9EC0011124D4
:100DC000BC01695C7C4F6115710509F400C1DB0150
:100DD0002C91222319F0253EC1F427C071100EC0BA
:100DE000F701628A40910001509101016091020176
:100DF0007091030146875787608B718BFC01E95C1A
:100E0000FC4F8081811113C015C04BE050E0C6013A
:100E10000E94A625892B09F09FCF8B2D80738033EC
:100E200009F4D5C04B2D662DCCC07720C9F27724AC
:100E3000739492CF772473948B2D8271823109F051
:100E4000C6C07720D1F0D7011E966D917D918D910E
:100E50009C91519741E00E94640E882309F4B7C029
:100E6000F7016289F0E26F9FB0011124695C7C4F49
:100E70006115710509F079C0AAC0D80115968C9149
:100E8000823009F4A4C0C8010E94D302882309F467
:100E90009EC0D8015B96ED91FC915C9716964D90A3
:100EA0005D906D907C901997B2E04B1A51086108E3
:100EB0007108058404C0440C551C661C771C0A94F8
:100EC000D2F786859785A089B189480E591E6A1E7A
:100ED0007B1E9480E1E04E1A510861087108992048
:100EE00009F10E94290E882309F471C0E7E3F3E0B9
:100EF000119225E0E733F207D9F7D301C201890D3A
:100F0000911DA11DB11D8093000190930101A0933B
:100F10000201B0930301809129038160809329032A
:100F20009A94DDCFD8015B96ED91FC915C9780E0BF
:100F300092E0A0E0B0E0058404C0880F991FAA1FCA
:100F4000BB1F0A94D2F7F8014389548965897689D1
:100F5000840F951FA61FB71F838B948BA58BB68B11
:100F6000D70152961C9267E373E080E2FB01119275
:100F70008A95E9F78BE0F601DB0101900D928A95E5
:100F8000E1F781E298E2DB0151969C938E935097B2
:100F900020E038E01F963C932E931E9753969C9327
:100FA0008E93529759969C938E93589757963C934D
:100FB0002E9356970E94290E882349F04B2DF70156
:100FC0006289C7010E94A301A82E01C0A12C8A2D0D
:100FD0002B960FB6F894DEBF0FBECDBFDF91CF9139
:100FE0001F910F91FF90EF90DF90CF90BF90AF9047
:100FF0009F907F906F905F904F900895FC01818D3E
:10100000928D009711F00C9435058FEF9FEF0895A6
:101010000F931F93CF93DF93FC01818D928D0097E7
:10102000B9F0EF010E9435058C010F3F8FEF1807D3
:1010300091F0898D9A8DFC01428553856485758573
:1010400041505109610971090E947810C80105C019
:1010500080E090E002C08FEF9FEFDF91CF911F9172
:101060000F910895EF92FF920F931F93CF93DF9309
:10107000EC017901411551056105710511F482E119
:101080003CC08B85833039F089E0440F551F661FC3
:10109000771F8A95D1F79A01AB0168E1CE010E94D2
:1010A0003F04882311F084E028C08EEF0E94E703FC
:1010B00087018EEFF81AF80181918F010E94E703F2
:1010C0000E151F05C1F78FEF0E94E7038FEF0E94F7
:1010D000E7030E94EE038A878F71853031F081E14A
:1010E0008D83CE010E94DC0309C068E572E0CE0169
:1010F0000E94F103811107C085E18D83CE010E941A
:10110000DC0380E013C020E030E0A9016DE0CE01F7
:101110000E943F04811104C00E94EE03882311F055
:1011200084E1EBCFCE010E94DC0381E0DF91CF911F
:101130001F910F91FF90EF900895FC01DB01129633
:101140008D919C911397938382838FE391E0918398
:10115000808314968C911497848315968C9115979F
:10116000858316964D915D916D917C91199746837B
:101170005783608771871A964D915D916D917C912F
:101180001D9742875387648775871E964D915D91A1
:101190006D917C91519746875787608B718B5296E2
:1011A0008C915297828B53964D915D916D917C916C
:1011B0005697438B548B658B768B57964D915D91EB
:1011C0006D917C915A97478B508F618F728F5B9690
:1011D0008D919C915C97948F838F0895EF92FF92ED
:1011E0000F931F93CF93DF93EC017B018A011B8246
:1011F0001A8288EE93E0A0E0B0E08C839D83AE83FA
:10120000BF838FE191E0998388838DE190E00E9414
:1012100074249A8F898F009779F02DE1F701DC0112
:1012200001900D922A95E1F74CE050E0B801CE0113
:101230000C960E94D525188EDF91CF911F910F91AA
:10124000FF90EF9008951F920F920FB60F92112406
:101250002F933F934F935F936F937F938F939F93BE
:10126000AF93BF93EF93FF93E091E002F091E1021F
:10127000309709F451C0968DA685B785858591FF75
:1012800004C09C91892329F447C09C91892309F0CB
:1012900043C0A389B4899C918589809589238C93C7
:1012A000868997890197F1F7608D718DA685B7853D
:1012B000558538E020E0CB010197F1F7822F90E0CF
:1012C00095958795282F4C91452309F0206831503A
:1012D00091F7868D81FD20958091DF0290E0019647
:1012E0008F7399273091DE02381749F0A091DF0201
:1012F000B0E0A951BD4F2C938093DF0203C0868DCF
:101300008160868F828D938D0197F1F7A389B489CF
:101310009C918589892B8C93FF91EF91BF91AF911F
:101320009F918F917F916F915F914F913F912F91FD
:101330000F900FBE0F901F901895E091E002F09172
:10134000E102E817F90769F4A389B4899C918589BA
:10135000809589238C931092E1021092E00281E043
:10136000089580E00895CF93DF93EC018A859B85F3
:10137000AC85BD858E839F83A887B9870E94D30DD6
:101380006A837B838C839D8381E089838883DF915B
:10139000CF9108952F923F924F925F926F927F92DA
:1013A0008F929F92AF92BF92CF92DF92EF92FF9275
:1013B0000F931F93CF93DF93D82FC92F8B010E94D8
:1013C0007A2124E630E040E050E00E9416244901F2
:1013D0005A019B01AC0160E876E988E990E00E943F
:1013E000F2236B017C01F80191828082ED2FFC2FAA
:1013F0002191822F022E000C990BC0970A97C0F3FF
:101400002E3239F51F0180E8882E86E9982E88E96A
:10141000A82EB12C9AE0492E512C612C712CF1018F
:10142000C1911F010C2E000CDD0BE097CA30D105D5
:1014300080F4C501B401A30192010E941624490160
:101440005A01DE010E944924C60ED71EE81EF91E6D
:10145000E6CFA5E0B0E0A70196010E943E246F5FB1
:101460007F4F8F4F9F4F23E030E040E050E00E94DD
:101470001624F80122833383448355831682DF9137
:10148000CF911F910F91FF90EF90DF90CF90BF9081
:10149000AF909F908F907F906F905F904F903F9014
:1014A0002F900895FF920F931F93CF93DF93EC013A
:1014B000FF24F39488818D3211F0F12C01C0219624
:1014C000CE010E947A219B01AC01A4E6B0E00E940B
:1014D0003E24FE014991242F042E000C330B20538F
:1014E00031092A303105A8F34E3241F52181022E0F
:1014F000000C330B205331092A303105F8F44AE04F
:10150000429F8001439F100D1124012E000C220BDD
:10151000330B600F711F821F931F0281002E000C7E
:10152000110B005311090A30110540F4012E000C73
:10153000220B330B600F711F821F931FFF2039F0A6
:1015400090958095709561957F4F8F4F9F4FDF915C
:10155000CF911F910F91FF900895CF92DF92EF925C
:10156000FF920F931F93CF93DF936C017A018B014E
:10157000C0E0D0E0CE15DF0589F0D8016D918D0176
:10158000D601ED91FC910190F081E02DC601099505
:10159000892B11F47E0102C02196ECCFC701DF91A7
:1015A000CF911F910F91FF90EF90DF90CF90089512
:1015B000FC01918D828D981761F0828DDF01A80F5B
:1015C000B11D5D968C91928D9F5F9F73928F90E07D
:1015D00008958FEF9FEF0895FC01918D828D9817EC
:1015E00031F0828DE80FF11D858D90E008958FEF29
:1015F0009FEF0895FC01918D228D892F90E0805CF2
:101600009F4F821B91098F739927089589E495E074
:101610000E94FA0A21E0892B09F420E0822F089524
:10162000FC01848DDF01A80FB11DA35ABF4F2C917F
:10163000848D90E001968F739927848FA689B7894E
:101640002C93A089B1898C9180648C93938D848D27
:10165000981306C00288F389E02D80818F7D8083F6
:101660000895EF92FF920F931F93CF93DF93EC01B6
:1016700081E0888F9B8D8C8D981305C0E889F9894E
:10168000808185FD24C0F62E0B8D10E00F5F1F4F6B
:101690000F731127E02E8C8DE8120CC00FB607FCDB
:1016A000FACFE889F989808185FFF5CFCE010E94C4
:1016B000100BF1CF8B8DFE01E80FF11DE35AFF4FA8
:1016C000F0820B8FEA89FB898081806207C0EE89F6
:1016D000FF896083E889F98980818064808381E063
:1016E00090E0DF91CF911F910F91FF90EF900895BF
:1016F000CF93DF93EC01888D8823C9F0EA89FB89B9
:10170000808185FD05C0A889B9898C9186FD0FC0AF
:101710000FB607FCF5CF808185FFF2CFA889B98984
:101720008C9185FFEDCFCE010E94100BE7CFDF91AA
:10173000CF91089580E090E0892B29F00E94060B5C
:1017400081110C94000008950E94A125DC01ED9107
:10175000FC910190F081E02D09946115710579F0FB
:10176000FB0101900020E9F73197AF01461B570BB1
:10177000DC01ED91FC910280F381E02D099480E081
:1017800090E008954F925F926F927F92EF92FF9256
:101790000F931F93CF93DF93CDB7DEB7A1970FB60B
:1017A000F894DEBF0FBECDBF7C01FA01CB0119A2B8
:1017B000223008F42AE08E010F5D1F4F422E512C7B
:1017C000612C712CBF01A30192010E941624F90122
:1017D000CA01015011096A3014F4605D01C0695CEE
:1017E000D8016C93232B242B252B61F7B801C7015B
:1017F0000E94AD0BA1960FB6F894DEBF0FBECDBF11
:10180000DF91CF911F910F91FF90EF907F906F909C
:101810005F904F9008954F925F926F927F928F9258
:101820009F92AF92BF92CF92DF92EF92FF92CF93AF
:10183000DF93EC016A017B01B22E9A01AB01C70173
:10184000B6010E94ED23882319F06CEC72E027C0EA
:1018500026013701E89477F82FEF3FEF4FE75FE776
:10186000C301B2010E94ED2381110DC02FEF3FEFA4
:101870004FE75FE7C301B2010E94232218161CF450
:1018800060ED72E00CC02FEF3FEF4FE75FE4C70160
:10189000B6010E947B2318169CF464ED72E0CE0121
:1018A000DF91CF91FF90EF90DF90CF90BF90AF90FE
:1018B0009F908F907F906F905F904F900C94AD0BA6
:1018C0002FEF3FEF4FE75FECC701B6010E942322E5
:1018D00087FDE3CF20E030E0A901C701B6010E94F7
:1018E000232287FF0AC06DE2CE010E94A60B4C01A5
:1018F000F7FAF094F7F8F09402C0812C912CA12C07
:1019000060E070E080E09FE3AB1441F020E030E065
:1019100040E251E40E942822A394F6CF9B01AC013F
:10192000C701B6010E94B7212B013C010E949A22F7
:101930006B017C010E94C9229B01AC01C301B20171
:101940000E94B6212B013C012AE0B701A601CE017D
:101950000E94C20B7C01E80CF91CBB2031F06EE246
:10196000CE010E94A60BE80EF91EDB2CDD2029F12A
:1019700020E030E040E251E4C301B2010E94802344
:101980002B013C010E949A224B01A12CB12C2AE090
:10199000B501A401CE010E94C20BE80EF91EC501DB
:1019A000B4010E94C9229B01AC01C301B2010E9493
:1019B000B6212B013C01DA94D9CFC701DF91CF9139
:1019C000FF90EF90DF90CF90BF90AF909F908F905F
:1019D0007F906F905F904F90089568ED72E00C9447
:1019E000AD0B0C94AD0B1F920F920FB60F921124FA
:1019F0002F933F934F935F936F937F938F939F9317
:101A0000AF93BF93EF93FF9389E495E00E94100B8F
:101A1000FF91EF91BF91AF919F918F917F916F91C6
:101A20005F914F913F912F910F900FBE0F901F909C
:101A300018951F920F920FB60F9211242F938F9328
:101A40009F93EF93FF93E0915905F0915A058081A0
:101A5000E0915F05F091600582FD12C09081809158
:101A600062058F5F8F7320916305821751F0E091BB
:101A70006205F0E0E75BFA4F958F8093620501C045
:101A80008081FF91EF919F918F912F910F900FBEC9
:101A90000F901F90189590E0FC01EC52FF4F34918D
:101AA000FC01E05FFE4F2491FC01E450FF4FE49104
:101AB000EE2309F43BC0332339F1333091F038F48D
:101AC0003130A9F0323001F584B58F7D12C0373046
:101AD00091F03830A1F03430B9F4809180008F7DDE
:101AE00003C0809180008F77809380000DC084B503
:101AF0008F7784BD09C08091B0008F7703C080913B
:101B0000B0008F7D8093B000F0E0EE0FFF1FE85132
:101B1000FF4FA591B4918FB7F894EC91611103C078
:101B200020952E2301C02E2B2C938FBF0895CF9389
:101B3000DF9390E0FC01E05FFE4F2491FC01E45054
:101B4000FF4F8491882361F190E0880F991FFC0179
:101B5000E654FF4FC591D491FC01E851FF4FA59188
:101B6000B491611109C09FB7F894888120958223B0
:101B70008883EC912E230BC0623061F49FB7F894F8
:101B80003881822F809583238883EC912E2B2C9390
:101B90009FBF06C08FB7F894E8812E2B28838FBF94
:101BA000DF91CF9108952FB7F8946091330370912E
:101BB000340380913503909136032FBF08951F920F
:101BC0000F920FB60F9211242F933F938F939F93F1
:101BD000AF93BF938091330390913403A091350369
:101BE000B09136033091320323E0230F2D3720F4D8
:101BF0000196A11DB11D05C026E8230F0296A11D67
:101C0000B11D209332038093330390933403A09348
:101C10003503B093360380912E0390912F03A0914A
:101C20003003B09131030196A11DB11D80932E03A5
:101C300090932F03A0933003B0933103BF91AF91E2
:101C40009F918F913F912F910F900FBE0F901F90FA
:101C50001895809129038823A9F1409100015091A2
:101C60000101609102017091030127E333E080914B
:101C70003705909138050E943208811102C080E03A
:101C8000089540912A0350912B0360912C03709189
:101C90002D03411551056105710591F027E333E0EE
:101CA00080913705909138050E943208882339F3D6
:101CB00010922A0310922B0310922C0310922D03E2
:101CC0001092290381E008958F929F92AF92BF9264
:101CD000EF92FF920F931F93CF934B015C01C42FA0
:101CE0008091000190910101A0910201B091030146
:101CF00088159905AA05BB0501F10E94290E8111DD
:101D000002C080E020C087E3E82E83E0F82E00E0E8
:101D100012E020E030E0B501A401809137059091F8
:101D200038050E94A104882361F3809200019092FB
:101D30000101A0920201B092030180912903C82BF6
:101D4000C093290381E0CF911F910F91FF90EF90F5
:101D5000BF90AF909F908F9008954F925F926F9237
:101D60007F928F929F92AF92BF92CF92DF92EF922B
:101D7000FF920F931F93CF93DF93EC016A017B01D6
:101D800028013901423051056105710510F480E0E8
:101D900073C089859A85AB85BC850196A11DB11D4F
:101DA00084179507A607B70790F38B889C88AD88A2
:101DB000BE888F89803129F4BB27AF2D9E2D8D2DB4
:101DC00009C0DB01CA0147E0B695A79597958795AD
:101DD0004A95D1F7880E991EAA1EBB1E809100015C
:101DE00090910101A0910201B0910301881699061A
:101DF000AA06BB0679F48F898031A1F4DD24EE2494
:101E0000FF24C601880F991FFC01E95CFC4F518239
:101E1000408219C040E0C501B4010E94640E8111E6
:101E2000EACFB5CFE894C7F8DD24EE24FF24C6013D
:101E3000880F991F880F991FFC01E95CFC4F4082B5
:101E40005182628273828091290381608093290389
:101E50008A89823080F08D819E81AF81B885880E1D
:101E6000991EAA1EBB1E80922A0390922B03A09259
:101E70002C03B0922D0381E0DF91CF911F910F9140
:101E8000FF90EF90DF90CF90BF90AF909F908F909A
:101E90007F906F905F904F9008958F929F92AF9236
:101EA000BF92CF92DF92EF92FF920F931F93CF9347
:101EB000DF93FC0181859285A385B4850196A11DE0
:101EC000B11D84179507A607B70710F480E05CC022
:101ED00083899489A589B689C789C03129F4852E5B
:101EE000962EA72EBB2409C04A015B01C7E0B69419
:101EF000A79497948794CA95D1F7E9016A017B0169
:101F00008F01BC01CD01680D791D8A1D9B1D80903C
:101F1000000190900101A0900201B09003016815AA
:101F200079058A059B0599F4F80187898031A9F420
:101F3000B701A601552766277727440F551FFA01D9
:101F4000E95CFC4F80819181A0E0B0E018C040E0E6
:101F50000E94640E8111E8CFB9CFB701A6014F7777
:101F6000552766277727440F551F440F551FFA0141
:101F7000E95CFC4F80819181A281B381BF7088832D
:101F80009983AA83BB8381E0DF91CF911F910F9149
:101F9000FF90EF90DF90CF90BF90AF909F908F9089
:101FA00008954F925F926F927F92AF92BF92CF92BD
:101FB000DF92EF92FF920F931F93CF93DF9300D0A6
:101FC00000D0CDB7DEB78C0149835A836B837C8305
:101FD0005901C12CD12C7601412C82E0582E612C64
:101FE000712C49815A816B817C819E012F5F3F4F0B
:101FF000C8010E944D0F882351F1D301C201F8019D
:10200000058404C0880F991FAA1FBB1F0A94D2F72A
:10201000C80ED91EEA1EFB1E49815A816B817C8144
:102020008789803129F088EF9FEFAFEFBFE004C0D0
:1020300088EF9FEFA0E0B0E0481759076A077B07D9
:1020400080F2F501C082D182E282F38281E00F90BA
:102050000F900F900F90DF91CF911F910F91FF90F4
:10206000EF90DF90CF90BF90AF907F906F905F9098
:102070004F900895CF93DF93EC018D818823A1F1D8
:102080008C8187FF2DC06E857F858889998941E085
:102090000E94640E882341F1EA8980E2E89FF00102
:1020A0001124DF01A95CBC4F1097F1F08D818230C3
:1020B00050F44B895C896D897E895C964D935D9364
:1020C0006D937C935F978F89988DA98DBA8DE95C0C
:1020D000FC4F938F828FB58BA48B8C818F778C83F1
:1020E000DF91CF910C94290E80E0DF91CF9108957C
:1020F0008F929F92AF92BF92CF92DF92EF92FF9218
:102100000F931F93CF93DF93EC018D81811102C058
:1021100080E077C00B891C892D893E89041715073B
:1021200026073707A8F36A017B01823029F4CA86A3
:10213000DB86EC86FD860DC0C114D104E104F104F8
:1021400051F41E821F82188619861A861B861C86E9
:102150001D8681E056C08A849B84AC84BD84EB8D4F
:10216000FC8D258530E0275F3F4FB501A40141502C
:10217000510961097109022E04C07695679557953A
:1021800047950A94D2F7D701C6010197A109B10971
:1021900004C0B695A795979587952A95D2F7841789
:1021A0009507A607B70720F089288A288B2849F4C5
:1021B0004F89588D698D7A8D4E835F8368877987C3
:1021C00004C0841B950BA60BB70B4C015D018E015F
:1021D0000A5F1F4F81149104A104B10409F4A7CF31
:1021E0004E815F816885798598018B8D9C8D0E94D9
:1021F0004D0F91E0891A9108A108B1088111EACF29
:1022000087CFDF91CF911F910F91FF90EF90DF90DB
:10221000CF90BF90AF909F908F9008952F923F9254
:102220004F925F926F927F928F929F92AF92BF92E6
:10223000CF92DF92EF92FF920F931F93CF93DF9392
:1022400000D000D0CDB7DEB78C015B011A01DC01F4
:1022500015968C9115978130C9F414968C9181FF55
:1022600015C082FF1BC0F8014389548965897689AE
:1022700082859385A485B58584179507A607B7073A
:1022800069F0C8010E947810811108C081E090E0D7
:10229000F8019383828380E090E039C1610183C0BB
:1022A000D8015B968D919C915C97FC012481215013
:1022B0002A013B0139E076946794579447943A9504
:1022C000D1F7722E74207A01F1E0FF22772009F411
:1022D00076C080E092E08E199F0946018C159D051D
:1022E00008F44C01D8015B962D913C915C971696B1
:1022F0008D919D910D90BC91A02D0297A109B109DE
:10230000F901058404C0880F991FAA1FBB1F0A94F6
:10231000D2F74685578560897189840F951FA61F5E
:10232000B71F9C01AD01270D311D411D511D290114
:102330003A01811432E0930609F088C080910001CF
:1023400090910101A0910201B091030184159505BE
:10235000A605B70559F48FEF9FEFDC0180930001CC
:1023600090930101A0930201B09303019501B30181
:10237000A20180913705909138050E943208882388
:1023800009F484CF9EEFB91AC818D908F8018285DC
:102390009385A485B585880D991DA11DB11D8287E2
:1023A0009387A487B587D8011A964D915D916D9159
:1023B0007C911D97C114D10409F072CF87C0E1143C
:1023C000F10409F086CF16964D915D916D917C9147
:1023D0001997411551056105710559F457968D916D
:1023E0009D910D90BC91A02D0097A105B10541F5DF
:1023F00021C09E012F5F3F4F0E944D0F882309F49B
:102400004BCF89819A81AB81BC81F801238D348DBA
:10241000F9012789203129F048EF5FEF6FEF7FE066
:1024200004C048EF5FEF60E070E084179507A607EF
:10243000B70730F0C8010E94D30281114ACF26CFDE
:10244000F80186839783A087B18743CFE114F10415
:1024500029F5D8011A964D915D916D917C911D974A
:1024600053968D919D910D90BC91A02D48175907C1
:102470006A077B0798F00E94290E882309F406CF8B
:10248000409200015092010160920201709203019A
:102490008091290381608093290308C041E0C30132
:1024A000B2010E94640E882309F4F0CED501F70131
:1024B000E95CFC4FCF01880D991DE817F90719F069
:1024C0002D912193FACFA80CB91C5ECF53968D9114
:1024D0009D910D90BC91A02D84179507A607B70775
:1024E00040F4F801438B548B658B768B8481806834
:1024F0008483D80114968C9183FD02C0C10107C06A
:10250000C8010E943A10882309F4C0CEF7CF0F907B
:102510000F900F900F90DF91CF911F910F91FF902F
:10252000EF90DF90CF90BF90AF909F908F907F9073
:102530006F905F904F903F902F900895CF93DF93CF
:102540001F92CDB7DEB7698341E050E0BE016F5FF7
:102550007F4F0E940E110F90DF91CF910895462F6B
:1025600050E060E070E02AE00C94C20BCF93DF9360
:10257000242FAB01BC0189E495E00E940B0CEC0117
:1025800089E495E00E94ED0C8C0F9D1FDF91CF91A7
:1025900008952F923F924F925F926F927F928F9207
:1025A0009F92AF92BF92CF92DF92EF92FF920F93E2
:1025B0001F93CF93DF93CDB7DEB7C456D1090FB6C3
:1025C000F894DEBF0FBECDBF5C014E018EE1880ED8
:1025D000911C62E176E0C4010E949D081C821B826E
:1025E0008FE391E09A8389831E82FE0131966F0109
:1025F000240189E3E82E85E0F82E1F016FE270E0E8
:10260000C7010E94BA250097F1F1F70120812F320E
:1026100021F4FFEFEF1AFF0AF1CF8E198D3008F089
:102620008CE0082F10E0A801B701CE01885A9F4F17
:102630000E94D525E8E5F0E0EC0FFD1FE00FF11F4B
:102640001082C6010E94C70221E0AE01485A5F4FC6
:10265000B201C6010E943F0681110AC01EAE1DAE26
:102660008FE391E09CAF8BAF21961FAE219714C0F2
:10267000E00EF11EC2010E94C702942D852D260195
:10268000C92ED82EBBCFC701895395403C01B2015A
:10269000CE01CB960E949D088301075C1A4FF8017A
:1026A0008081811109C0BE01655C7F4FC1010E941C
:1026B0009D084BED52E044C019A218A28FE391E0AF
:1026C0009F8F8E8F1BA221968FAD2197811113C0F2
:1026D000F5011382128288EE93E0A0E0B0E08483DB
:1026E0009583A683B7838FE191E091838083128ED7
:1026F000118E148629C0825023E1A801823040F453
:1027000062E176E0C4010E943F0681110DC0E0CF76
:10271000BE01655C7F4FC4010E943F068823C1F261
:10272000CE01CB960E94C70249A95AA96BA97CA9E0
:10273000C4010E947810B401C1010E949D08A80143
:10274000B101C5010E94EE08C501CC59DF4F0FB69B
:10275000F894DEBF0FBECDBFDF91CF911F910F91D7
:10276000FF90EF90DF90CF90BF90AF909F908F90B1
:102770007F906F905F904F903F902F900895CF93F0
:10278000DF93BC0189E495E00E94AD0BEC0189E484
:1027900095E00E94ED0C8C0F9D1FDF91CF91089565
:1027A0008F929F92AF92BF92CF92DF92EF92FF9261
:1027B000CF93DF93C82F88EE95E0909338058093F0
:1027C0003705CC2369F1C53010F080E00DC140E041
:1027D00060E070E0CB010E94640E8823B1F320E139
:1027E000C29FC0011124895D9C4FFC01E254FE4F41
:1027F00020812F7751F73C9640815181628173810E
:10280000443651056105710500F33497C080D180CD
:10281000E280F380C114D104E104F10421F4D5CFA6
:10282000C12CD12C760140E0C701B6010E94640E94
:10283000882359F28091420390914303811592407D
:1028400021F6A0914703AA2309F4BFCF6091450365
:10285000709146036115710509F4B7CF20914403C7
:10286000222309F4B2CFA09306062093F80580E056
:1028700030E0E1E0F0E0C82FAF01082E02C0440FC5
:10288000551F0A94E2F72417350741F0982F8F5F00
:10289000983089F789E08093010697CF80930106ED
:1028A00020914D0330914E032115310519F040E080
:1028B00050E008C020915B0330915C0340915D03C0
:1028C00050915E032093F9053093FA054093FB0580
:1028D0005093FC0546015701860E971EA11CB11CA2
:1028E0008092070690920806A0920906B0920A0606
:1028F000E0914803F0914903F0930D06E0930C0634
:10290000B0E00E943E24860E971EA81EB91E80923B
:102910000E0690920F06A0921006B092110685E066
:10292000EE0FFF1F8A95E1F7E150FE4FEF2FFF27D3
:10293000E6958E0E9F1EA11CB11C809202069092FD
:102940000306A0920406B092050620914A03309136
:102950004B032115310521F0A90160E070E008C0AA
:1029600040915703509158036091590370915A0355
:10297000D701C60188199909AA09BB09840F951FB7
:10298000A61FB71F04C0B695A79597958795CA95BA
:10299000D2F78093FD059093FE05A093FF05B093B9
:1029A0000006853F2FE09207A105B10510F48CE0E9
:1029B00018C0853F9F4FA105B10510F480E111C0FB
:1029C0008091630390916403A0916503B0916603C5
:1029D00080930E0690930F06A0931006B0931106F5
:1029E00080E280930B0681E0DF91CF91FF90EF9022
:1029F000DF90CF90BF90AF909F908F900895CF932E
:102A0000DF93CDB7DEB7C556D1090FB6F894DEBF58
:102A10000FBECDBF789484B5826084BD84B58160DB
:102A200084BD85B5826085BD85B5816085BD809199
:102A30006E00816080936E00109281008091810011
:102A40008260809381008091810081608093810009
:102A5000809180008160809380008091B1008460CB
:102A60008093B1008091B00081608093B00080912C
:102A70007A00846080937A0080917A0082608093EB
:102A80007A0080917A00816080937A0080917A0048
:102A9000806880937A001092C100E0915905F0910E
:102AA0005A0582E08083E0915505F0915605108229
:102AB000E0915705F091580580E1808310926105FF
:102AC000E0915D05F0915E0586E08083E0915B0515
:102AD000F0915C05808180618083E0915B05F091DD
:102AE0005C05808188608083E0915B05F0915C05E6
:102AF000808180688083E0915B05F0915C05808136
:102B00008F7D80838AED92E00E94BF138BE691E077
:102B10000E94BF1388E891E00E94BF1310924C06F8
:102B200010924B0610924A061092490610924806DF
:102B3000109247068DE991E090934E0680934D06E2
:102B400090913D06963108F057C02DEB30E0309360
:102B50004806209347062BE931E030934A0620933C
:102B600049062CE231E030934C0620934B0620912D
:102B70006800983050F031E09E3008F430E081E099
:102B800001C0880F3A95EAF701C084E0822B809358
:102B90006800983038F09E3040F0963148F020E0E0
:102BA00030E008C02DE630E005C02BE630E002C082
:102BB0002CE630E03093450620934406983030F4FC
:102BC00081E001C0880F9A95EAF70EC0292F30E006
:102BD0009E3018F42850310902C02E50310981E08E
:102BE00001C0880F2A95EAF78093460680914D062A
:102BF00090914E060197F1F780914B0690914C060B
:102C0000892B21F18091E0029091E10226E081334D
:102C10009207E1F0009711F00E949D0980914F0604
:102C20008E7F80934F061092DF021092DE0281E3C6
:102C300096E09093E1028093E002E0914406F091E7
:102C40004506908180914606892B808384EA91E035
:102C50000E94BF131092F3051092F1051092EE0539
:102C60001092ED0588E08093EC050E94D30D8B0156
:102C700061E08091EC050E94970D61E08091EC0588
:102C80000E944B0DFFB6F8948091E202811127C09B
:102C9000E6E0F1E08491EAE1F1E09491E82FF0E0E0
:102CA000EE0FFF1FE654FF4FA591B491EC91E9237D
:102CB00021F461E08AE00E944B0D61E08AE00E940D
:102CC000970D8CB580618CBD8CB580648CBD61E046
:102CD0008DE00E94970D61E08BE00E94970D80913E
:102CE000E2028F5F8093E202FFBE82E58093E605F9
:102CF0001092E7058091E6059091E7050E94260471
:102D0000BAE0FB2E8FEF0E94E703FA94F110FACF9E
:102D100088EE95E00E94290420E030E0A90160E0FF
:102D200088EE95E00E943F04F82E8093F20591E032
:102D3000891749F00E94D30D601B710B613D7740EC
:102D400058F381E056C02AEA31E040E050E068E004
:102D500088EE95E00E943F0482FF03C0F092F305E5
:102D600010C0A4E0FA2E0E94EE038093F205FA94BC
:102D7000F110F9CF8A3A11F082E03BC082E08093F3
:102D8000F3058091F305823021F0C12CD12C76011E
:102D900005C0C12CD12CE12CF0E4FF2E20E030E066
:102DA000A90167E388EE95E00E943F04A701960120
:102DB00069E288EE95E00E943F048093F205882343
:102DC00049F00E94D30D601B710B613D774030F3D9
:102DD00088E00FC08091F305823001F520E030E0FB
:102DE000A9016AE388EE95E00E943F04882341F040
:102DF00086E08093ED0588EE95E00E94DC03A5C097
:102E00000E94EE03807C803C19F483E08093F305FC
:102E10000E94EE030E94EE030E94EE0388EE95E00E
:102E20000E94DC0380E58093E6051092E70581E0CF
:102E30000E94D013882329F080911706882341F03F
:102E400084C080E00E94D013882309F47EC0F4CFB0
:102E500080910B06803109F582E08093170610926D
:102E6000290610922A0610922B0610922C068091A9
:102E70000C0690910D06A0E0B0E0E5E0880F991FE8
:102E8000AA1FBB1FEA95D1F78093250690932606CB
:102E9000A0932706B09328061EC0803209F055C0C3
:102EA00083E08093170640910E0650910F066091C3
:102EB0001006709111064093290650932A066093DC
:102EC0002B0670932C0625E236E084EF95E00E94F5
:102ED000D10F8823D1F184EF95E090932E06809353
:102EE0002D0681E08093160610921806109219069E
:102EF00010921A0610921B0610921C0610921D06C4
:102F000010921E0610921F061092200610922106A3
:102F10001092220610922306109224068CEB91E068
:102F20000E94BF13E12CF12C59E3C52E55E0D52E9C
:102F300069E0462E62E0562E7FE3A72E71E0B72EA1
:102F40003E01BBE36B0E711C87C081ED91E00E94D6
:102F5000BF13FFCF21E0AE01485A5F4FB801892D62
:102F6000982D0E943F06382EA6E002311A0709F07C
:102F7000B3C0882309F4B5C08E01025E1F4F902FA5
:102F8000812F092D182D4C01A6962FADA697322D15
:102F9000F901E75CFA4F80818F3211F42F5F3F4FC8
:102FA000FE01E85AFF4F40E050E0D901A75CBA4F5C
:102FB0008C918F3251F0882341F04F5F5F4F2F5F2C
:102FC0003F4F81934C30510581F7E8E5F0E0EC0F7D
:102FD000FD1FE40FF51F1082F901E75CFA4F8081B5
:102FE0008F3211F42F5F3F4FA6962FAFA697232E57
:102FF000F901E75CFA4F30801C821B82BA82A982F9
:103000001E8221E0AE01485A5F4FB801CE01019601
:103010000E943F06882309F457C0CE0101960E9402
:10302000C702311097CFB6E002311B0719F0C80173
:103030000E94C70269E375E089E495E00E94F10C03
:1030400083E292E00E94BF13EFEFEE1AFE0AF4E66D
:10305000EF16F10409F445C0F60101900020E9F7EC
:103060003197AF014953554060E070E089E395E046
:103070000E94B325AEEFB1E0BF93AF93FF92EF9202
:10308000A2E0B2E0BF93AF935F924F92DF92CF92F4
:103090000E94E4251EAE1DAEBCAEABAE21961FAEA7
:1030A000219719A218A2BF8EAE8E1BA20FB6F8945C
:1030B000DEBF0FBECDBFA6961FAEA697212C962CC5
:1030C000872C02E116E060CF96E00231190749F043
:1030D000C8010E94C70205C0C8010E94C702311082
:1030E0004ECF61E172E089E495E00E94F10C89E342
:1030F00095E00E94BF13CE0101960E94C912EA8D8D
:10310000FB8D309769F18581882351F14BE0E42EE6
:1031100041E0F42E00E010E0D7016D917D917D013A
:10312000CE0101960E94F10C0730110531F06CE2DE
:10313000CE0101960E94A60B04C0CE0101960E940A
:10314000ED0C0F5F1F4F0830110531F78A8D9B8DF5
:10315000009731F00E94C7028A8D9B8D0E9409253D
:1031600080E1882E87E2982EA12CB12C94E6C92EFE
:10317000D12CE12CF12C27E0322E32E0232E01E07D
:103180004090E3025090E4026090E5027090E60205
:10319000B8E84B0EB3E15B1E611C711C0E94D30D9D
:1031A000641575058605970508F427C480915106B6
:1031B000882309F4D8C3CE0101960E94C912EA8D72
:1031C000FB8D309709F4CAC38581882309F4C6C3EF
:1031D00010925106609152067091530680E090E083
:1031E0000E94C9222B013C01609154067091550642
:1031F00080915606909157060E94C92228E23BE62C
:103200004EE65EE40E9428229B01AC01C301B2019C
:103210000E94B72120915806AB01BC0121117058C2
:1032200026E0CE0101960E940B0C6CE2CE010196C5
:103230000E94A60B109251066091590670915A0691
:1032400080E090E00E94C9222B013C0160915B0666
:1032500070915C0680915D0690915E060E94C92285
:1032600028E23BE64EE65EE40E9428229B01AC0188
:10327000C301B2010E94B72120915F06AB01BC01DE
:103280002111705826E0CE0101960E940B0C6CE2D1
:10329000CE0101960E94A60B1092AB066091B0067B
:1032A0007091B1068091B2069091B3060E94CB2234
:1032B00020E030E048EC52E40E942822AB01BC013F
:1032C00021E0CE0101960E940B0C6CE2CE0101962A
:1032D0000E94A60B10928F0660919406709195063D
:1032E00080919606909197060E94CB2226E53EE0BB
:1032F0004DEE5FE30E94802320E030E048EC52E492
:103300000E942822AB01BC0121E0CE0101960E945F
:103310000B0C6CE2CE0101960E94A60B10929D064A
:103320006091A2067091A3068091A4069091A506D3
:103330000E94CB2220E030E048EC52E40E94282298
:10334000AB01BC0121E0CE0101960E940B0C6CE2A6
:10335000CE0101960E94A60B10927306609174062E
:10336000709175068091760690917706A50194017B
:103370000E941624622FCE0101960E94AF126FE2C6
:10338000CE0101960E94A60B1092730660917406FE
:10339000709175068091760690917706A701960147
:1033A0000E941624CA01B901A70196010E941624A1
:1033B000CE0101960E94AF126FE2CE0101960E94EB
:1033C000A60B109273066091740670917506809139
:1033D000760690917706A70196010E941624AB010C
:1033E0004053584F60E070E02AE0CE0101960E9401
:1033F000C20B6CE2CE0101960E94A60B10928106D0
:103400006091820670918306809184069091850672
:1034100020E432E44FE050E00E941624622FCE01F7
:1034200001960E94AF126AE3CE0101960E94A60B9C
:1034300010928106609182067091830680918406C5
:1034400090918506A50194010E941624CA01B90134
:10345000A70196010E9416246A3071058105910525
:1034600028F460E3CE0101960E94A60B109281061B
:103470006091820670918306809184069091850602
:10348000A50194010E941624CA01B901A701960161
:103490000E941624CE0101960E94AF126AE3CE016B
:1034A00001960E94A60B109281066091820670918F
:1034B00083068091840690918506A70196010E945B
:1034C0001624CA01B901A70196010E9416246A3088
:1034D00071058105910528F460E3CE0101960E94F3
:1034E000A60B1092810660918206709183068091EE
:1034F000840690918506A70196010E941624CA01B0
:10350000B901A70196010E941624CE0101960E94DE
:10351000AF126CE2CE0101960E94A60B1092B90682
:103520004091BE065091BF066091C0067091C106E1
:103530002AE0CE0101960E94C20BCE0101960E94A4
:10354000ED0C8A8D9B8D009741F00E94C7028A8DF9
:103550009B8D0E9409251B8E1A8E6BE272E089E416
:1035600095E00E94F10C60E272E089E495E00E942F
:10357000F10C10925106609152067091530680E052
:1035800090E00E94C9222B013C0160915406709189
:10359000550680915606909157060E94C92228E24E
:1035A0003BE64EE65EE40E9428229B01AC01C3018B
:1035B000B2010E94B721209158062111905846E08F
:1035C00050E00E94B61264E372E089E495E00E9444
:1035D000F10C60E272E089E495E00E94F10C109237
:1035E00051066091590670915A0680E090E00E9461
:1035F000C9222B013C0160915B0670915C068091B1
:103600005D0690915E060E94C92228E23BE64EE6E6
:103610005EE40E9428229B01AC01C301B2010E941A
:10362000B72120915F062111905846E050E00E949A
:10363000B6126EE372E089E495E00E94F10C60E25C
:1036400072E089E495E00E94F10C1092AB06609163
:10365000B0067091B1068091B2069091B3060E94B7
:10366000CB2220E030E048EC52E40E94282241E0E6
:1036700050E00E94B61267E472E089E495E00E948F
:10368000F10C60E272E089E495E00E94F10C109286
:103690008F066091940670919506809196069091A0
:1036A00097060E94CB2226E53EE04DEE5FE30E94A6
:1036B000802320E030E048EC52E40E94282241E0E0
:1036C00050E00E94B6126DE472E089E495E00E9439
:1036D000F10C60E272E089E495E00E94F10C109236
:1036E0009D066091A2067091A3068091A406909118
:1036F000A5060E94CB2220E030E048EC52E40E9474
:10370000282241E050E00E94B61264E572E089E4AC
:1037100095E00E94F10C60E272E089E495E00E947D
:10372000F10C109273066091740670917506809189
:10373000760690917706A50194010E941624622FC7
:1037400089E495E00E94AF126FE289E495E00E945F
:10375000A60B1092730660917406709175068091A5
:10376000760690917706A70196010E941624CA0159
:10377000B901A70196010E94162489E495E00E94F0
:10378000AF126FE289E495E00E94A60B10927306D7
:103790006091740670917506809176069091770617
:1037A000A70196010E941624AB014053584F60E0D8
:1037B00070E02AE089E495E00E94C20B89E495E07C
:1037C0000E94ED0C69E572E089E495E00E94F10C3D
:1037D00060E272E089E495E00E94F10C10928106AB
:1037E000609182067091830680918406909185068F
:1037F00020E432E44FE050E00E941624622F89E476
:1038000095E00E94AF126AE389E495E00E94A60B5E
:1038100010928106609182067091830680918406E1
:1038200090918506A50194010E941624CA01B90150
:10383000A70196010E9416246A3071058105910541
:1038400028F460E389E495E00E94A60B10928106BB
:10385000609182067091830680918406909185061E
:10386000A50194010E941624CA01B901A70196017D
:103870000E94162489E495E00E94AF126AE389E46D
:1038800095E00E94A60B10928106609182067091CD
:1038900083068091840690918506A70196010E9477
:1038A0001624CA01B901A70196010E9416246A30A4
:1038B00071058105910528F460E389E495E00E9493
:1038C000A60B10928106609182067091830680910A
:1038D000840690918506A70196010E941624CA01CC
:1038E000B901A70196010E941624AB01BC012AE090
:1038F00089E495E00E94C20B89E495E00E94ED0CFA
:103900006EE572E089E495E00E94F10C60E272E0FD
:1039100089E495E00E94F10C1092B9064091BE0630
:103920005091BF066091C0067091C1062AE089E4FB
:1039300095E00E94C20B89E495E00E94ED0C89E6B7
:1039400092E00E94BF130E94D30D6093E302709334
:10395000E4028093E5029093E6024FC08EE792E086
:103960000E94BF134AC06BE972E089E495E00E94AF
:10397000F10C1092B9064091BE065091BF066091BD
:10398000C0067091C1062AE089E495E00E94C20B4E
:1039900089E495E00E94ED0C30C081E396E00E943E
:1039A0007A01182F8091ED069091EE06A091EF0616
:1039B000B091F0060196A11DB11D8093ED06909384
:1039C000EE06A093EF06B093F006143209F4BDC2E0
:1039D000E091E7061532E4F41A30B1F4EF3018F153
:1039E0008091E6068F5F8093E6061092E70681E0FD
:1039F0001A3209F080E08093D50681E396E00E94B8
:103A00006201892B51F6C2C21D3009F0ABC2E6CF6C
:103A10001A3221F31C3209F0A5C28091D406812705
:103A20008093D406DBCFF0E0EA52F94F1082809108
:103A3000D506882309F477C12091D6063FEB320FD3
:103A4000822F022E000C990B363010F4C79707C056
:103A50002156263018F48755910901C0C097282FA8
:103A60002295207F3091D7064FEB430F832F032EF3
:103A7000000C990B463010F4C79707C0315636300A
:103A800018F48755910901C0C097820F9091D40610
:103A9000891335C18091F9069091FA06A091FB0631
:103AA000B091FC060196A11DB11D8093F90690937B
:103AB000FA06A093FB06B093FC068091E8068823E3
:103AC00099F08091F1069091F206A091F306B091E1
:103AD000F4060196A11DB11D8093F1069093F206A4
:103AE000A093F306B093F4067090E506772009F4EE
:103AF0006BC0E1E07E12D0C080917806909179068B
:103B0000A0917A06B0917B06809374069093750617
:103B1000A0937606B09377060E94D30D60937C063F
:103B200070937D0680937E0690937F067092730655
:103B3000709272068091860690918706A091880601
:103B4000B09189068093820690938306A0938406A1
:103B5000B09385060E94D30D60938A0670938B06FE
:103B600080938C0690938D067092810670928006E9
:103B70008091E806882309F48FC0E0E6F6E0A2E52C
:103B8000B6E0832D01900D928A95E1F7E7E6F6E025
:103B9000A9E5B6E0832D01900D928A95E1F70E9488
:103BA000D30D60936E0670936F06809370069093AA
:103BB000710670925106709250068EE896E00E944F
:103BC000B3098CE996E066C08091860690918706DD
:103BD000A0918806B091890680938206909383060F
:103BE000A0938406B09385060E94D30D60938A0645
:103BF00070938B0680938C0690938D0600938106BC
:103C0000009380068091E806882321F1E0E6F6E043
:103C1000A2E5B6E0832D01900D928A95E1F7E7E6E3
:103C2000F6E0A9E5B6E0832D01900D928A95E1F7C3
:103C30000E94D30D60936E0670936F06809370069A
:103C40009093710600935106009350068AEA96E01D
:103C50000E94B3098091C2069091C306A091C40648
:103C6000B091C5068093BE069093BF06A093C00690
:103C7000B093C1060E94D30D6093BA067093BB0641
:103C80008093BC069093BD060093B9060093B806D6
:103C900086EC96E00E94B3096090EB067090EC060B
:103CA0006114710409F49CCEE091EB06F091EC06EE
:103CB00066A177A1D30196968D919C9197970E94CA
:103CC000C525892B09F08CCEB301C30140960E9413
:103CD000CE250E94D30DD30190966D937D938D9345
:103CE0009C939397E1E09596EC939597F1E09496E9
:103CF000FC9394979A966D907C909B97D1CF8091EE
:103D0000F5069091F606A091F706B091F806019697
:103D1000A11DB11D8093F5069093F606A093F706BA
:103D2000B093F8065DCE9091E606911148C064EB21
:103D300072E086ED96E00E94C525892B41F06AEB82
:103D400072E086ED96E00E94C525892B19F4009358
:103D5000E50615C060EC72E086ED96E00E94C52590
:103D6000892B41F066EC72E086ED96E00E94C52555
:103D7000892B19F41092E50602C02092E506809185
:103D8000E9069091EA069093EC068093EB0660902A
:103D9000EB067090EC066114710409F421CED30196
:103DA00096964D905C90979766ED76E0C2010E94E2
:103DB000C52597FFEEC0F30182A593A5E4CFE0915E
:103DC000E506E23009F491C08091D606882309F413
:103DD0008CC0B0E2EB9FF0011124E92B3197E9325E
:103DE000F10508F082C0EC5CFF4F0C94382486ED9E
:103DF00096E00E94520A609386067093870680932D
:103E000088069093890671C091E0813409F043C01F
:103E100043C060E676E009C091E0833509F090E0A8
:103E20009093660662C067E676E086ED96E00E94B3
:103E3000CA095BC091E0873509F090E090936D0668
:103E400054C086ED96E00E94520A609398067093E3
:103E5000990680939A0690939B0647C086ED96E05C
:103E60000E94520A6093A6067093A7068093A80644
:103E70009093A9063AC086ED96E00E947A2160935D
:103E800078067093790680937A0690937B062DC00E
:103E900091E081330CF490E09093E80626C086ED23
:103EA00096E00E947A216093C2067093C3068093C5
:103EB000C4069093C50619C086ED96E00E94520A8A
:103EC0006093D0067093D1068093D2069093D30668
:103ED0000CC086ED96E00E94520A6093B40670937F
:103EE000B5068093B6069093B7066090EB06709087
:103EF000EC066114710409F473CDE091EB06F091C6
:103F0000EC0666A177A1D30196968D919C91979727
:103F10000E94C525892B09F063CDF30120A531A5A9
:103F20008091E60690E0821793070CF459CD28178C
:103F3000390739F440E150E066ED76E0C3010E94B4
:103F4000D525F30162A473A4D4CF1092E706109292
:103F5000E6061092D4062092E5061092D50610923D
:103F6000E8064BCDEE3040F481E08E0F8093E706FB
:103F7000F0E0EA52F94F10838091D50681113DCDD2
:103F80008091D40618271093D40637CD0E949A0B3F
:103F9000F7C866ED76E0C2010E94C525181619061D
:103FA0000CF01ECD1092EC061092EB0619CD87E4B2
:103FB00091E0909332068093310681E396E00C9471
:103FC0009D0910924C0510924B0588EE93E0A0E0FD
:103FD000B0E080934D0590934E05A0934F05B093AC
:103FE00050052FE231E030934A052093490525EC36
:103FF00030E0309356052093550524EC30E03093A3
:1040000058052093570520EC30E030935A05209353
:10401000590521EC30E030935C0520935B0522ECE0
:1040200030E030935E0520935D0526EC30E0309360
:10403000600520935F05109262051092630510924F
:1040400064051092650520E52093E6051092E705CA
:104050001092ED051092EE051092F1051092F30505
:1040600042E050E060E070E04093F4055093F505C5
:104070006093F6057093F70510920B0610921506E3
:10408000109214062FE331E03093130620931206AA
:104090001092170610925006109251061092530675
:1040A000109252061092540610925506109256061F
:1040B000109257061092580610925A0610925906FE
:1040C00010925B0610925C0610925D0610925E06DE
:1040D00010925F06109261061092600610926206BE
:1040E000109263061092640610926506109266069E
:1040F00010926806109267061092690610926A067E
:1041000010926B0610926C0610926D061092720659
:10411000109273061092740610927506109276062D
:1041200010927706109280061092810610928206F5
:1041300010928306109284061092850610928E06C5
:1041400010928F0610929406109295061092960681
:104150001092970610929C0610929D061092A2064D
:104160001092A3061092A4061092A5061092AA0619
:104170001092AB061092B0061092B1061092B206E1
:104180001092B3061092B8061092B9061092BE06AD
:104190001092BF061092C0061092C1061092C60679
:1041A0001092C7061092CC061092CD061092CE0641
:1041B0001092CF061092D4061092D50622E02093DA
:1041C000E5061092E6061092E7061092E8061092B5
:1041D000EA061092E9061092EC061092EB06109295
:1041E000ED061092EE061092EF061092F006109275
:1041F000F1061092F2061092F3061092F406109255
:10420000F5061092F6061092F7061092F806109234
:10421000F9061092FA061092FB061092FC06109214
:10422000D60610923406109233068093350690938A
:104230003606A0933706B093380687E491E0909352
:10424000320680933106109248061092470610926B
:104250004A061092490610924C0610924B06109294
:104260004E0610924D0660914F066E7F6D7F6093F3
:104270004F066695617081E0682783E00E944B0DD0
:1042800061E083E00E94970DE3E1F1E0E491E093C7
:104290004106EFEFF0E0E491F0E0EE0FFF1FE85190
:1042A000FF4F85919491909343068093420660E07E
:1042B00082E00E94970D80914F0681FD04C061E06D
:1042C00082E00E944B0D82E080933D06E2E1F1E046
:1042D000E491E0933E06EEEFF0E0E491F0E0EE0FC3
:1042E000FF1FEE50FF4F859194919093400680936D
:1042F0003F0608951F93FC0199278827BC01E89485
:1043000011911032E9F3193010F01E30C8F31B324E
:1043100051F01D3249F4689406C00E94A121610F3A
:10432000711D811D911D119110531A30B0F33EF48F
:1043300090958095709561957F4F8F4F9F4F1F91FE
:104340000895592F482F372F262F660F771F881F64
:10435000991F660F771F881F991F620F731F841F95
:10436000951F660F771F881F991F08955058BB2708
:10437000AA270E94CE210C9441230E94332338F0B7
:104380000E943A2320F039F49F3F19F426F40C944C
:1043900030230EF4E095E7FB0C942A23E92F0E94CA
:1043A000522358F3BA17620773078407950720F062
:1043B00079F4A6F50C9474230EF4E0950B2EBA2F25
:1043C000A02D0B01B90190010C01CA01A00111241B
:1043D000FF27591B99F0593F50F4503E68F11A16C7
:1043E000F040A22F232F342F4427585FF3CF469558
:1043F00037952795A795F0405395C9F77EF41F167A
:10440000BA0B620B730B840BBAF09150A1F0FF0F43
:10441000BB1F661F771F881FC2F70EC0BA0F621F2F
:10442000731F841F48F4879577956795B795F7951F
:104430009E3F08F0B0CF9395880F08F09927EE0FB4
:104440009795879508950E94062308F481E00895C2
:104450000E943C220C9441230E943A2358F00E946F
:10446000332340F029F45F3F29F00C942A235111A3
:104470000C9475230C9430230E94522368F39923E3
:10448000B1F3552391F3951B550BBB27AA27621750
:104490007307840738F09F5F5F4F220F331F441F5D
:1044A000AA1FA9F335D00E2E3AF0E0E832D0915091
:1044B0005040E695001CCAF72BD0FE2F29D0660F7E
:1044C000771F881FBB1F261737074807AB07B0E8C1
:1044D00009F0BB0B802DBF01FF2793585F4F3AF0C7
:1044E0009E3F510578F00C942A230C9475235F3F6E
:1044F000E4F3983ED4F3869577956795B795F7954D
:104500009F5FC9F7880F911D9695879597F9089534
:10451000E1E0660F771F881FBB1F621773078407D0
:10452000BA0720F0621B730B840BBA0BEE1F88F7DF
:10453000E09508950E945A2388F09F5798F0B92F6C
:104540009927B751B0F0E1F0660F771F881F991FC8
:104550001AF0BA95C9F714C0B13091F00E947423D3
:10456000B1E008950C947423672F782F8827B85FE3
:1045700039F0B93FCCF3869577956795B395D9F720
:104580003EF490958095709561957F4F8F4F9F4F2A
:104590000895E89409C097FB3EF490958095709536
:1045A00061957F4F8F4F9F4F9923A9F0F92F96E97F
:1045B000BB279395F695879577956795B795F111F4
:1045C000F8CFFAF4BB0F11F460FF1BC06F5F7F4F91
:1045D0008F4F9F4F16C0882311F096E911C07723A3
:1045E00021F09EE8872F762F05C0662371F096E8AC
:1045F000862F70E060E02AF09A95660F771F881F7B
:10460000DAF7880F9695879597F90895990F00081E
:10461000550FAA0BE0E8FEEF16161706E807F90794
:10462000C0F012161306E407F50798F0621B730B2F
:10463000840B950B39F40A2661F0232B242B252BB0
:1046400021F408950A2609F4A140A6958FEF811D53
:10465000811D089597F99F6780E870E060E00895F4
:104660009FEF80EC089500240A941616170618068A
:104670000906089500240A94121613061406050666
:104680000895092E0394000C11F4882352F0BB0FF7
:1046900040F4BF2B11F460FF04C06F5F7F4F8F4F5A
:1046A0009F4F089557FD9058440F551F59F05F3F95
:1046B00071F04795880F97FB991F61F09F3F79F044
:1046C00087950895121613061406551FF2CF4695C6
:1046D000F1DF08C0161617061806991FF1CF869548
:1046E0007105610508940895E894BB27662777272C
:1046F000CB0197F908950E94062308F48FEF0895DF
:104700000E9493230C9441230E94332338F00E948B
:104710003A2320F0952311F00C942A230C94302393
:1047200011240C9475230E94522370F3959FC1F3BA
:10473000950F50E0551F629FF001729FBB27F00D4F
:10474000B11D639FAA27F00DB11DAA1F649F6627A4
:10475000B00DA11D661F829F2227B00DA11D621FF3
:10476000739FB00DA11D621F839FA00D611D221FAD
:10477000749F3327A00D611D231F849F600D211D91
:10478000822F762F6A2F11249F5750409AF0F1F014
:1047900088234AF0EE0FFF1FBB1F661F771F881F7D
:1047A00091505040A9F79E3F510580F00C942A2368
:1047B0000C9475235F3FE4F3983ED4F38695779588
:1047C0006795B795F795E7959F5FC1F7FE2B880F23
:1047D000911D9695879597F908950E940623880B59
:1047E000990B0895DB018F939F930E943E24BF9104
:1047F000AF91A29F800D911DA39F900DB29F900D30
:104800001124089597FB072E16F4009407D077FD26
:1048100009D00E94512407FC05D03EF49095819563
:104820009F4F0895709561957F4F0895A1E21A2ECC
:10483000AA1BBB1BFD010DC0AA1FBB1FEE1FFF1F44
:10484000A217B307E407F50720F0A21BB30BE40B94
:10485000F50B661F771F881F991F1A9469F76095DB
:104860007095809590959B01AC01BD01CF01089595
:10487000EE0FFF1F0590F491E02D09940E9465242E
:10488000A59F900DB49F900DA49F800D911D1124A4
:104890000895B7FF0C943E240E943E24821B930B84
:1048A0000895AA1BBB1B51E107C0AA1FBB1FA61777
:1048B000B70710F0A61BB70B881F991F5A95A9F7C9
:1048C00080959095BC01CD010895A29FB001B39F42
:1048D000C001A39F700D811D1124911DB29F700D09
:1048E000811D1124911D0895CF93DF93823091058E
:1048F00010F482E090E0E091FF06F091000720E0E4
:1049000030E0C0E0D0E0309711F14081518148178C
:104910005907C0F04817590761F4828193812097A5
:1049200019F09B838A832BC0909300078093FF0626
:1049300026C02115310519F04217530718F49A01C2
:10494000BE01DF01EF010280F381E02DDCCF2115F4
:10495000310509F1281B390B2430310590F41296EA
:104960008D919C9113976115710521F0FB01938343
:10497000828304C0909300078093FF06FD01329666
:1049800044C0FD01E20FF31F81939193225031093E
:104990002D933C933AC02091FD063091FE06232BC7
:1049A00041F420910601309107013093FE062093D7
:1049B000FD0620910401309105012115310541F4D6
:1049C0002DB73EB74091080150910901241B350BCA
:1049D000E091FD06F091FE06E217F307A0F42E1B0E
:1049E0003F0B2817390778F0AC014E5F5F4F241753
:1049F000350748F04E0F5F1F5093FE064093FD06AB
:104A00008193919302C0E0E0F0E0CF01DF91CF917C
:104A100008950F931F93CF93DF93009709F48CC0F1
:104A2000FC013297138212820091FF061091000759
:104A30000115110581F420813181820F931F20918E
:104A4000FD063091FE062817390779F5F093FE062A
:104A5000E093FD0671C0D80140E050E0AE17BF07FB
:104A600050F412962D913C911397AD01211531050B
:104A700009F1D901F3CF9D01DA01338322836081EB
:104A80007181860F971F8217930769F4EC012881C3
:104A90003981260F371F2E5F3F4F318320838A8154
:104AA0009B8193838283452B29F4F0930007E09345
:104AB000FF0642C01396FC93EE931297ED014991C5
:104AC00059919E01240F351FE217F30771F480817D
:104AD0009181840F951F029611969C938E938281EB
:104AE000938113969C938E931297E0E0F0E0D801A7
:104AF00012968D919C911397009719F0F8018C01F3
:104B0000F6CF8D919C9198012E5F3F4F820F931F9E
:104B10002091FD063091FE062817390769F4309779
:104B200029F4109200071092FF0602C0138212822D
:104B30001093FE060093FD06DF91CF911F910F9118
:104B4000089581E090E0F8940C94BC28FB01DC010E
:104B500004C08D910190801921F441505040C8F754
:104B6000881B990B0895DC0101C06D9341505040A2
:104B7000E0F70895FC018191861721F08823D9F789
:104B8000992708953197CF010895FB01DC018D919C
:104B9000019080190110D9F3990B0895FB01DC01F4
:104BA00001900D920020E1F70895FB01DC014150D6
:104BB000504048F001900D920020C9F701C01D92AD
:104BC00041505040E0F70895AEE0B0E0EAEEF5E283
:104BD0000C9493280D891E8986E08C831A8309839F
:104BE0008FEF9FE79E838D83AE01475E5F4F6F8996
:104BF000788DCE0101960E9407262F813885F80115
:104C0000E20FF31F10822E96E4E00C94AF28ACE084
:104C1000B0E0EDE0F6E20C9485287C016B018A019E
:104C2000FC0117821682838181FFBDC1CE010196EE
:104C30004C01F7019381F60193FD859193FF8191DA
:104C40006F01882309F4ABC1853239F493FD859156
:104C500093FF81916F01853229F4B70190E00E94A2
:104C6000EF27E7CF512C312C20E02032A0F48B32FB
:104C700069F030F4803259F0833269F420612CC03D
:104C80008D3239F0803339F4216026C022602460EF
:104C900023C0286021C027FD27C030ED380F3A30EF
:104CA00078F426FF06C0FAE05F9E300D1124532EE3
:104CB00013C08AE0389E300D1124332E20620CC0C0
:104CC0008E3221F426FD6BC1206406C08C3611F4AF
:104CD000206802C0883641F4F60193FD859193FF68
:104CE00081916F018111C1CF982F9F7D9554933091
:104CF00028F40C5F1F4FFFE3F9830DC0833631F0BA
:104D0000833771F0833509F05BC022C0F8018081E0
:104D100089830E5F1F4F44244394512C540115C0C6
:104D20003801F2E06F0E711CF801A080B18026FFFF
:104D300003C0652D70E002C06FEF7FEFC5012C87C7
:104D40000E94E4272C0183012C852F77222E17C087
:104D50003801F2E06F0E711CF801A080B18026FFCF
:104D600003C0652D70E002C06FEF7FEFC5012C8797
:104D70000E94D9272C012C852068222E830123FC38
:104D80001BC0832D90E048165906B0F4B70180E2AD
:104D900090E00E94EF273A94F4CFF50127FC85912B
:104DA00027FE81915F01B70190E00E94EF2731104B
:104DB0003A94F1E04F1A51084114510471F7E5C0DB
:104DC000843611F0893639F5F80127FF07C0608174
:104DD0007181828193810C5F1F4F08C06081718156
:104DE000072E000C880B990B0E5F1F4F2F76722E2B
:104DF00097FF09C090958095709561957F4F8F4F73
:104E00009F4F2068722E2AE030E0A4010E942728DC
:104E1000A82EA81844C0853729F42F7EB22E2AE088
:104E200030E025C0F22FF97FBF2E8F36C1F018F485
:104E3000883579F0B4C0803719F0883721F0AFC0D9
:104E40002F2F2061B22EB4FE0DC08B2D8460B82EA2
:104E500009C024FF0AC09F2F9660B92E06C028E023
:104E600030E005C020E130E002C020E132E0F8018E
:104E7000B7FE07C060817181828193810C5F1F4FF3
:104E800006C06081718180E090E00E5F1F4FA40139
:104E90000E942728A82EA818FB2DFF777F2E76FECC
:104EA0000BC0372D3E7FA51450F474FE0AC072FC6F
:104EB00008C0372D3E7E05C0BA2C372D03C0BA2C52
:104EC00001C0B52C34FF0DC0FE01EA0DF11D80813B
:104ED000803311F4397E09C032FF06C0B394B39415
:104EE00004C0832F867809F0B39433FD13C030FFDC
:104EF00006C05A2CB31418F4530C5B18B32CB3141B
:104F000068F4B70180E290E03C870E94EF27B394F9
:104F10003C85F5CFB31410F43B1801C0312C34FF9D
:104F200012C0B70180E390E03C870E94EF273C85E8
:104F300032FF17C031FD03C088E790E002C088E56A
:104F400090E0B7010CC0832F867859F031FF02C082
:104F50008BE201C080E237FD8DE2B70190E00E9454
:104F6000EF27A51438F4B70180E390E00E94EF2703
:104F70005A94F7CFAA94F401EA0DF11D8081B7018C
:104F800090E00E94EF27A110F5CF332009F451CE15
:104F9000B70180E290E00E94EF273A94F6CFF70144
:104FA0008681978102C08FEF9FEF2C96E2E10C94EF
:104FB000A128FC010590615070400110D8F7809540
:104FC00090958E0F9F1F0895FC01615070400190D5
:104FD0000110D8F7809590958E0F9F1F08950F931D
:104FE0001F93CF93DF93FB01238121FD03C08FEF3C
:104FF0009FEF28C022FF16C046815781248135814A
:105000004217530744F4A081B1819D012F5F3F4FA8
:10501000318320838C93268137812F5F3F4F3783E5
:10502000268310C0EB01092F182F0084F185E02D95
:105030000995892BE1F68E819F8101969F838E834E
:10504000812F902FDF91CF911F910F910895FA0139
:10505000AA27283051F1203181F1E8946F936E7FB7
:105060006E5F7F4F8F4F9F4FAF4FB1E03ED0B4E0A8
:105070003CD0670F781F891F9A1FA11D680F791FE9
:105080008A1F911DA11D6A0F711D811D911DA11DFA
:1050900020D009F468943F912AE0269F112430190A
:1050A000305D3193DEF6CF010895462F4770405DA5
:1050B0004193B3E00FD0C9F7F6CF462F4F70405D54
:1050C0004A3318F0495D31FD4052419302D0A9F7AF
:1050D000EACFB4E0A6959795879577956795BA95A9
:1050E000C9F700976105710508959B01AC010A2E6F
:1050F00006945795479537952795BA95C9F7620F46
:10510000731F841F951FA01D08952F923F924F92E9
:105110005F926F927F928F929F92AF92BF92CF9247
:10512000DF92EF92FF920F931F93CF93DF93CDB750
:10513000DEB7CA1BDB0B0FB6F894DEBF0FBECDBFC8
:1051400009942A88398848885F846E847D848C8499
:105150009B84AA84B984C884DF80EE80FD800C81A2
:105160001B81AA81B981CE0FD11D0FB6F894DEBF85
:105170000FBECDBFED01089510E0C3E9D0E004C03B
:10518000FE010E9438242196C439D107C9F7F8944A
:02519000FFCF4F
:10519200FFFFFFFF000001078000002B0234023EE8
:1051A2000247024D02540259025E0200000000DF73
:1051B20000AB02BE00FE0708089B010000000031A0
:1051C2000BAD0AFA0AD80AEC0A780B000000009E1E
:1051D20012AD0A000000000E01AD0A62017A01F56B
:1051E200000D0100000000A40BAD0AA40BA40BA447
:1051F2000BA40B00000000A40BAD0A4172644750DF
:105202005320414C504841203120444542554720CB
:10521200434F4E534F4C4500496E697469616C6946
:105222007A696E6720475053206465766963652EFC
:105232002E2E2000496E697469616C697A696E6705
:1052420020534420636172642E2E2E0043726561E6
:1052520074696E67206E65772066696C652E2E2EE6
:105262000044657669636520776F726B20697320ED
:10527200696D706F737369626C652C2073797374D6
:10528200656D2068616C74696E672E2E2E006373E3
:10529200760061726467707300257325642E25732E
:1052A200004C6F6767696E6720746F2066696C6572
:1052B2003A200020657869737473004C61746974D4
:1052C200756465004C6F6E67697475646500416C46
:1052D20074697475646500537065656400436F7525
:1052E20072736500446174650054696D65005361B1
:1052F20074656C6C69746573004C6F6767656420D4
:105302006461746120746F2066696C6521004C6F62
:105312006767696E67206461746120746F206669D3
:105322006C65206661696C65642100475053206496
:1053320061746120696E76616C69642E20536174B8
:10534200733A20004750524D4300474E524D43009E
:10535200475047474100474E474741006E616E0044
:0E536200696E66006F7666000D0A002F00006F
:107E0000112484B714BE81FFF0D085E080938100F7
:107E100082E08093C00088E18093C10086E0809377
:107E2000C20080E18093C4008EE0C9D0259A86E02C
:107E300020E33CEF91E0309385002093840096BBD3
:107E4000B09BFECF1D9AA8958150A9F7CC24DD24C4
:107E500088248394B5E0AB2EA1E19A2EF3E0BF2EE7
:107E6000A2D0813461F49FD0082FAFD0023811F036
:107E7000013811F484E001C083E08DD089C08234E0
:107E800011F484E103C0853419F485E0A6D080C0E4
:107E9000853579F488D0E82EFF2485D0082F10E0AE
:107EA000102F00270E291F29000F111F8ED06801E7
:107EB0006FC0863521F484E090D080E0DECF843638
:107EC00009F040C070D06FD0082F6DD080E0C81688
:107ED00080E7D80618F4F601B7BEE895C0E0D1E017
:107EE00062D089930C17E1F7F0E0CF16F0E7DF06D8
:107EF00018F0F601B7BEE89568D007B600FCFDCFD4
:107F0000A601A0E0B1E02C9130E011968C91119780
:107F100090E0982F8827822B932B1296FA010C0160
:107F200087BEE89511244E5F5F4FF1E0A038BF0790
:107F300051F7F601A7BEE89507B600FCFDCF97BE46
:107F4000E89526C08437B1F42ED02DD0F82E2BD052
:107F50003CD0F601EF2C8F010F5F1F4F84911BD097
:107F6000EA94F801C1F70894C11CD11CFA94CF0C13
:107F7000D11C0EC0853739F428D08EE10CD085E9AC
:107F80000AD08FE07ACF813511F488E018D01DD067
:107F900080E101D065CF982F8091C00085FFFCCF94
:107FA0009093C60008958091C00087FFFCCF809118
:107FB000C00084FD01C0A8958091C6000895E0E648
:107FC000F0E098E1908380830895EDDF803219F02E
:107FD00088E0F5DFFFCF84E1DECF1F93182FE3DFCA
:107FE0001150E9F7F2DF1F91089580E0E8DFEE27F6
:047FF000FF270994CA
:027FFE00040479
:0400000300007E007B
:00000001FF
